:020000040800F2
:10000000280500209D010008A5010008A70100089F
:10001000A9010008AB010008AD01000800000000C4
:100020000000000000000000000000008313000832
:10003000B1010008000000008113000885130008CA
:10004000B7010008B7010008B7010008B7010008B0
:10005000B7010008B7010008B7010008B7010008A0
:10006000B7010008B7010008B7010008B701000890
:10007000B7010008B7010008B7010008B701000880
:10008000B7010008B7010008B7010008B701000870
:10009000B7010008B7010008B7010008B701000860
:1000A000B7010008B7010008B7010008B701000850
:1000B000B7010008B7010008B7010008B701000840
:1000C000B7010008B7010008B7010008B701000830
:1000D000B7010008B7010008B7010008B701000820
:1000E000B7010008B7010008B7010008B701000810
:1000F000B7010008B7010008B7010008B701000800
:10010000000000000000000000000000B70100082F
:10011000B7010008B7010008B7010008B7010008DF
:10012000B7010008B7010008B7010008B7010008CF
:10013000B7010008B701000800000000000000003F
:10014000B7010008B7010008B7010008000000006F
:10015000000000000000000000000000000000009F
:100160000000000000000000B7010008B70100080F
:10017000B7010008000000000000000000000000BF
:1001800000000000B7010008DFF80CD000F018F8FC
:1001900000480047612000082805002006488047E5
:1001A00006480047FEE7FEE7FEE7FEE7FEE7FEE75C
:1001B000FEE7FEE7FEE7FEE7FD17000889010008FD
:1001C000064C074D06E0E06840F0010394E80700A4
:1001D00098471034AC42F6D3FFF7DAFFF02000085E
:1001E000102100082DE9F84FDFF864B100234FF02B
:1001F000010C4FF0030A4FF00F090BF1040EA0E0C1
:100200000CFA03F6324072D04C68022C01D0122C4A
:100210000ED1DC0800EB8408D8F820405D07EF0E13
:1002200009FA07F5AC430D69BD402543C8F82050D5
:1002300007685D0091F804800AFA05F408F00308E5
:10024000A74308FA05F848EA0708C0F800804F6895
:10025000012F05D0022F03D0112F01D0122F11D161
:100260008768D1F80C80A74308FA05F848EA070820
:10027000C0F808804768B7430E79C6F300169E4061
:100280003E434660C668A6438C68AC403443C460B5
:100290004C68E40054D52F4CA56945F00105A561D3
:1002A000A46923F0030504F0010400942A4C2E19DC
:1002B000B4689D072F0F09FA07F5AC43B0F1904FD2
:1002C00004D0264DA84203D1012512E0002510E0FC
:1002D000234DA84201D102250BE0224DA84201D1B5
:1002E000032506E0204DA84202D1042501E027E0C5
:1002F0000525BD402543B560DBF800405D464E68EE
:100300009443F60300D514432C60DEF80040754694
:100310004E689443B60300D514432C600C4D083549
:100320002C684E689443F60200D514432C60084DA7
:100330000C352C684E689443B60200D514432C60EB
:100340005B1C0A6832FA03F47FF45AAFBDE8F88FF9
:100350000004014000100240000001400004004879
:1003600000080048000C00480010004800690840E0
:1003700000D0012070470AB18161704781627047E7
:1003800001480068704700002C0000200248016806
:10039000491C0160704700002C000020074810B580
:1003A000016841F010010160032000F075F80020A1
:1003B00000F006F800F018F8002010BD0020024000
:1003C00010B5044607484FF47A710068B0FBF1F0AD
:1003D00000F053FC00222146501E00F03DF80020A2
:1003E00010BD0000300000201A4808B5816941F0B6
:1003F00001018161806900F001000090072000F098
:100400004BF8002211466FF00B0000F025F8002297
:1004100011466FF00A0000F01FF8002211466FF03D
:10042000090000F019F800221146501F00F014F8DE
:1004300000221146101F00F00FF800221146901EF6
:1004400000F00AF80022BDE808401146501E00F0F6
:1004500003B8000000100240F0B40E4B1B680C46BD
:10046000C3F30223C3F10705042D00D90425191D88
:10047000072901D2002300E0DB1E012606FA05F160
:10048000491E214099409E40761E16403143F0BCE3
:1004900000F066BF0CED00E0064900F007020868B6
:1004A0004FF6FF03184040EA0220034A1043086059
:1004B000704700000CED00E00000FA052DE9F04760
:1004C000DFF8708105460E46D8F8000000F00700FE
:1004D000B0420CD2D8F8001021F007013143C8F81F
:1004E0000010D8F8000000F00700B04277D128785B
:1004F000514C800705D56068A96820F0F0000843DA
:1005000060602878C00759D06968012001290DD0A2
:10051000022929D05FF0020393FAA3F2B2FA82F221
:1005200042F02002520904D0226803E04FF4003365
:10053000F2E7626A93FAA3F3B3FA83F303F01F03BB
:10054000984002424BD0606820F00300084360608E
:10055000FFF716FF6968074641F2883001290DD080
:100560000229814617D025E04FF00073D4E700BF81
:10057000FFF706FFC11B494501D918E081466068B5
:10058000C0F381000128F3D118E000BFFFF7F8FEA7
:10059000C11B49450BD86068C0F381000228F5D122
:1005A0000CE000BFFFF7ECFEC11B494502D9032058
:1005B000BDE8F087606810F00C0FF3D1D8F8001098
:1005C000404601F00701B1420BD9016821F0070153
:1005D00031430160006800F00700B04201D0012003
:1005E000E6E72878400705D56068E96820F4E06010
:1005F000084360602878000706D56068296920F400
:10060000605040EAC100606000F022F86168F022AA
:1006100092FAA2F201F0F001B2FA82F2D140074A56
:10062000515CC840064908600020FFF7C9FE002061
:10063000BEE700000020024000100240E020000859
:1006400030000020014800687047000030000020A2
:10065000144B10B55A68144802F00C0104291DD03F
:1006600008291BD14FF4701494FAA4F402F4701109
:10067000B4FA84F4E1400D4CDB6A615C0F2494FA17
:10068000A4F403F00F03B4FA84F4E340074C1034ED
:10069000D203E35C03D5B0FBF3F0484310BD04483C
:1006A000484310BD0010024000127A00C02000082C
:1006B00000093D002DE9F84F05460078F74EC007C8
:1006C0004FF0010425D070686704C0F38100012851
:1006D00007D07068C0F3810002281BD17068C00386
:1006E00018D597FAA7F0B0FA80F040F02000400942
:1006F00001D0306800E0706A97FAA7F1B1FA81F191
:1007000001F01F0104FA01F1084264D06868002872
:100710007DD060E06868B0F5803F0BD010B1B0F5D7
:10072000A02F17D0306820F480303060306820F47B
:10073000802002E0306840F480303060F06AA968C0
:1007400020F00F000843F062686828B3FFF718FE36
:1007500080460BE0306840F480203060EAE700BF5C
:10076000FFF70EFEA0EB0800642871D897FAA7F0F7
:10077000B0FA80F040F02000400901D0306800E07D
:10078000706A97FAA7F1B1FA81F101F01F0104FA3A
:1007900001F10842E4D01EE0FFF7F2FD804605E0DB
:1007A000FFF7EEFDA0EB08006428DED897FAA7F06B
:1007B000B0FA80F040F02000400901D0306800E03D
:1007C000706A97FAA7F1B1FA81F101F01F0104FAFA
:1007D00001F10842E4D12878DFF8C48280074FF0A5
:1007E000000A4FF0020732D570684FF0F80B10F096
:1007F0000C0F07D07068C0F38100022829D17068FF
:10080000C00326D497FAA7F0B0FA80F000E08BE09E
:1008100040F02000400901D0306800E0706A97FA8B
:10082000A7F1B1FA81F101F01F0104FA01F10842C8
:1008300002D02869012877D130689BFAABF2696948
:10084000B2FA82F220F0F8009140084330605AE09A
:1008500064E1286988B394FAA4F0B0FA80F048F80B
:100860002040FFF78DFD814606E000BFFFF788FDC1
:10087000A0EB0900022898D897FAA7F0B0FA80F008
:1008800040F02000400901D0306800E0706A97FA1B
:10089000A7F1B1FA81F101F01F0104FA01F1084258
:1008A000E4D030689BFAABF220F0F8016869B2FA44
:1008B00082F290400143316025E0FFE794FAA4F111
:1008C000B1FA81F148F821A0FFF75AFD814605E011
:1008D000FFF756FDA0EB09000228CCD897FAA7F045
:1008E000B0FA80F040F02000400901D0306800E00C
:1008F000706A97FAA7F1B1FA81F101F01F0104FAC9
:1009000001F10842E4D1287800076CD5A869A8B3A2
:1009100094FAA4F0B0FA80F008EB8000C0F88044AC
:10092000FFF72EFD814607E08AE100BFFFF728FDB3
:10093000A0EB090002289ED897FAA7F0B0FA80F041
:1009400040F06000B4EB501F01D130680BE097FA23
:10095000A7F0B0FA80F040F06000B7EB501F01D173
:10096000306A00E0706A97FAA7F1B1FA81F101F0FC
:100970001F0104FA01F21042D8D034E0FFE794FAE4
:10098000A4F1B1FA81F108EB8101C1F880A4FFF76D
:10099000F7FC814606E000BFFFF7F2FCA0EB090080
:1009A00002289AD897FAA7F0B0FA80F040F06000D9
:1009B000B4EB501F01D130680BE097FAA7F0B0FA02
:1009C00080F040F06000B7EB501F01D1306A00E0CA
:1009D000706A97FAA7F1B1FA81F101F01F0104FAE8
:1009E00001F21042D8D12878400774D5F0694FF051
:1009F0000009C00009D4F06940F08050F061F0694E
:100A00004FF0010900F08050009026480168C905A8
:100A100012D4016841F480710160FFF7B1FC834694
:100A200006E000BFFFF7ACFCA0EB0B00642875D814
:100A30001C480068C005F5D5E86801280AD008B14F
:100A4000052811D0306A20F001003062306A20F0B1
:100A5000040002E0306A40F001003062E868E0B172
:100A6000FFF78EFC83460DE0306A40F004003062F0
:100A7000F0E700BFFFF784FCA0EB0B0141F28830E8
:100A800081424BD897FAA7F0B0FA80F040F04000CE
:100A9000B4EB501F08D1306812E01DE00010024096
:100AA000000042420070004097FAA7F0B0FA80F0D0
:100AB00040F04000B7EB501F01D1306A00E0706A8F
:100AC00097FAA7F1B1FA81F101F01F0104FA01F2DE
:100AD0001042CFD02EE034E0FFF752FC834607E00F
:100AE000FFF74EFCA0EB0B0141F28830814215D894
:100AF00097FAA7F0B0FA80F040F04000B4EB501F36
:100B000001D130680CE097FAA7F0B0FA80F040F01D
:100B10004000B7EB501F02D1306A01E083E0706AF9
:100B200097FAA7F1B1FA81F101F01F0104FA01F27D
:100B30001042D5D1B9F1000F03D0F06920F08050F8
:100B4000F061E86980B37168C1F38101022977D04F
:100B50004FF080714F00022809D091FAA1F0B0FA4D
:100B600080F048F820A0FFF70BFC05465EE08946C0
:100B700091FAA1F15046B1FA81F1C24648F821003C
:100B8000FFF7FEFB804605E0FFF7FAFBA0EB08004D
:100B9000022848D897FAA7F0B0FA80F040F0200079
:100BA000400902D0306801E056E0706A97FAA7F178
:100BB000B1FA81F101F01F0104FA01F10842E3D119
:100BC000D5E908100843716821F474110843706076
:100BD00099FAA9F0B0FA80F04AF82040FFF7D0FB6C
:100BE000054604E0FFF7CCFB401B02281BD897FA10
:100BF000A7F0B0FA80F040F02000400901D0306842
:100C000000E0706A97FAA7F1B1FA81F101F01F01D3
:100C100004FA01F10842E5D01EE000BFFFF7B0FB87
:100C2000401B022802D90320BDE8F88F97FAA7F0ED
:100C3000B0FA80F040F02000400902D0306801E0B6
:100C40000CE0706A97FAA7F1B1FA81F101F01F0187
:100C500004FA01F10842E1D10020E5E70120E3E7D1
:100C60004FF0E0210428086903D020F00400086157
:100C7000704740F00400FAE7704710B5401EB0F12D
:100C8000807F01D3012010BD4FF0E02460610F216F
:100C9000601700F065FB0020A061072020610020A4
:100CA00010BD10B5FFF7E8FF10BD000030B590F89B
:100CB0003820012A1FD0012280F8382002685368AA
:100CC00094680E4DAA4202D00D4DAA4203D123F4DE
:100CD00070054B682B4323F070050B6889682B4324
:100CE00024F080042143536002689160002180F861
:100CF0003810084630BD022030BD0000002C0140F5
:100D00000034014010B5040003D094F8390010B14C
:100D100007E0012010BD002084F83800204600F0D4
:100D20000DF8022084F83900211D206800F09AFD9A
:100D3000012084F83900002010BD000008B50168CA
:100D40000B48B1F1804F0BD00A4A914207D1C169DB
:100D500041F00201C161C06900F00200009008BDCD
:100D6000C16941F00101C161C06900F00100F5E70E
:100D7000001002400004004070B5044690F83800AE
:100D8000012817D0012584F83850022084F8390052
:100D900022689068364E304020F47F4090600868AA
:100DA000502839D00DDC20285BD005DC98B3102802
:100DB00043D153E0022070BD302855D040283CD1AB
:100DC00041E0602830D070280CD0B0F5805F03D0AF
:100DD000B0F5005F31D112E020688168244A70329A
:100DE000114016E0CB68D1E90121206800F099FD9F
:100DF00021688868304040F0770088601DE0CB684B
:100E0000D1E90121206800F08CFD2068816841F45F
:100E10008041816011E01EE0CA684968206800F0E6
:100E20001BFF5021206806E0CA684968206800F06E
:100E300024FF6021206800F07EFD84F839500020F6
:100E400084F8380070BDCA684968206800F004FF63
:100E500040212068EFE700212068ECE7102120689E
:100E6000E9E720212068E6E730212068E3E7000079
:100E700088FFFEFF30B501680025022485B04FF0E1
:100E80009040B1F1804F21D0154A91421CD11021E0
:100E9000CDE90014CDE9024569460494FFF7A2F9B3
:100EA0000320CDE90004CDE9024569460D480494CC
:100EB000FFF798F94020CDE90004CDE902456946E5
:100EC00009480494FFF78EF905B030BD4FF4004196
:100ED000CDE9001401210294CDE903516946F1E7FF
:100EE00000040040000400480008004870B50446B3
:100EF00090F838000D4601280ED0012684F838609D
:100F0000022084F839000C2A45D007DC5AB1042AA3
:100F10001BD0082A78D12CE0022070BD102A4ED0B8
:100F2000142A71D15DE0206800F00EFD206881690F
:100F300041F0080181612068816921F0040181612B
:100F4000206881692A69114311E0206800F04AFD98
:100F50002068816941F4006181612068816921F420
:100F600080618161206881692A6941EA0221816189
:100F70004AE0206800F07EFD2068C16941F0080168
:100F8000C1612068C16921F00401C1612068C169A3
:100F90002A69114311E0206800F0B4FD2068C1699E
:100FA00041F40061C1612068C16921F48061C161BF
:100FB0002068C1692A6941EA0221C16124E02068F0
:100FC00000F0DAFD2068416D41F0080141652068BC
:100FD000416D21F0040141652068416D2A6911438A
:100FE00011E0206800F000FE2068416D41F40061CE
:100FF00041652068416D21F4806141652068416D43
:101000002A6941EA0221416584F83960002084F8A8
:10101000380070BD10B5040003D094F8390010B149
:1010200007E0012010BD002084F83800204600F0C1
:101030000CF8022084F83900211D206800F012FC11
:10104000012084F83900002010BD704710B5044617
:101050000068012200F05AFC0D48216881420BD043
:101060000C48814208D00C48814205D00B4881428F
:1010700002D00B48814203D1486C40F400404864E0
:101080002068016841F001010160002010BD0000EE
:10109000002C014000340140004001400044014068
:1010A000004801402DE9F04F624887B0416941F4A2
:1010B00000114161416901F400110591416941F458
:1010C00000214161416901F400210591416941F428
:1010D00080014161416901F480010591416941F458
:1010E00000314161416901F400310591416941F4E8
:1010F00080214161416901F480210591416941F4F8
:10110000801141614069002400F48010059037206F
:1011100000904948CDE9010469464848FFF762F864
:101120004FF6087701250097CDE9015469464348F9
:101130000394FFF757F8CDE900544FF0904A694601
:1011400050460294FFF74EF8E02000900226CDE9C9
:1011500001640520CDE9034069465046FFF742F897
:1011600040F23E300090CDE9015469463448039482
:10117000FFF738F84FF44C408DE85100694630488D
:10118000FFF730F84FF4405003948DE86100694652
:101190002B48FFF727F84FF40078DFF8A8B0CDE927
:1011A0000264CDE9008569465846FFF71BF84FF405
:1011B0008079CDE90264CDE9009569465046FFF794
:1011C00011F84FF4C0608DE8510069465046FFF7B2
:1011D00009F84FF4C050CDE900060320CDE90240E4
:1011E0000E20049069465046FEF7FCFFC020009098
:1011F0001220CDE901050420CDE9034069461248DB
:10120000FEF7F0FF002239460C48FFF7B4F8002241
:1012100043F23E310A48FFF7AEF8002241465846F5
:10122000FFF7A9F8002249465046FFF7A4F807B097
:10123000BDE8F08F001002400000121000100048BE
:10124000000C0048000800480004004830B51B4866
:101250008FB04FF0804102C018210024C82532C051
:1012600004601038FFF74EFD00B1FEE74FF48050E8
:101270000A900AA91148FFF77FFD00B1FEE70F4869
:10128000FFF7C8FE00B1FEE7079407A90B480994D1
:10129000FFF70CFD00B1FEE760200090CDE901549E
:1012A0000022694605480494FFF720FE00B1FEE7DE
:1012B0000248FFF7DFFD0FB030BD0000AC0000209A
:1012C00030B5264824498FB002C018210024C82513
:1012D00032C004601038FFF715FD00B1FEE74FF48F
:1012E00080500A900AA91D48FFF746FD00B1FEE7AD
:1012F0001A48FFF78FFE00B1FEE7079407A91748C9
:101300000994FFF7D3FC00B1FEE760200090CDE91F
:1013100001540022694611480494FFF7E7FD00B12B
:10132000FEE7042269460D48FFF7E0FD00B1FEE745
:10133000082269460948FFF7D9FD00B1FEE70C22F3
:1013400069460648FFF7D2FD00B1FEE70348FFF704
:1013500091FD0FB030BD000000040040E800002007
:101360000907090E002806DA00F00F0000F1E0205E
:1013700080F8141D704700F1E02080F800147047D9
:10138000704770472DE9F05F00F072FD00F088FCB7
:10139000F04A0024F049DFF8C493F14FF14DDFF833
:1013A000C8A3147043F6982810780B5C012B1AD14F
:1013B0003B5C83B119F80030ABB9EC4B10E0EC4B5F
:1013C00043F8208045F820400C541AF80060761C41
:1013D0000AF8006007E019F8006026B11BB9E54B78
:1013E0001B5C002BEBD1401CC0B210700428DBD971
:1013F000E14E1470934610780B5C012B18D13B5CC6
:10140000012B03D019F80030012B11D155F82030F1
:1014100047F2305C5B1C45F82030634508D9D44B5B
:101420000C5443F8208045F82040335C5B1C335457
:10143000401CC0B28BF800000428DCD9087888462C
:1014400060B900224FF40041CC48FEF794FF00221F
:101450004FF40061C948FEF78EFF2C6098F8010038
:1014600060B900224FF48071C448FEF784FF002267
:101470004FF48041C148FEF77EFF6C6098F802008F
:1014800060B900224FF40071BC48FEF774FF0022DF
:101490004FF40051B948FEF76EFFAC6098F80300B6
:1014A00060B900224FF48061B448FEF764FF002267
:1014B0004FF48051B148FEF75EFFEC6098F80400ED
:1014C00060B900224FF40071AD48FEF754FF0022CE
:1014D0004FF48071AA48FEF74EFF2C6159468BF8F5
:1014E0000040DFF8A0B2C64608781EF8003063BBA3
:1014F000335C032B1CD89E4B53F82080B8F1000FAF
:1015000012D0A8F1010843F820809A4B1B5C13B15C
:101510000BF8004005E0954B1B5C13B101230BF861
:101520000030B8F1010F10D801230EF800300CE0A4
:10153000954ADFF858C252F820305B1C42F8203040
:10154000634502D3345442F82040401CC0B20870B6
:101550000428C9D99EF8000001282AD19BF8000070
:10156000012801D0B8B124E099F80000012820D06A
:101570009AF80000022805D1012202218048FEF7D6
:10158000FAFE34700122D1027C48FEF7F4FE2C6092
:101590008AF800400DE0387801280AD000220221A4
:1015A0007748FEF7E8FE0122D1037448FEF7E3FE18
:1015B0002C6069484FF4FA68407801282DD19BF8D7
:1015C0000100012801D0D0B127E099F801000128DD
:1015D00023D09AF80100022808D10122042168488A
:1015E000FEF7C9FE6A49C1F80480747001229103B4
:1015F0006248FEF7C0FE6C608AF801400DE0787822
:1016000001280AD0002204215D48FEF7B4FE012221
:1016100011025A48FEF7AFFE6C604F4880780128EF
:101620002DD19BF80200012801D0D0B127E099F814
:101630000200012823D09AF80200022808D10122D2
:1016400008214F48FEF797FE5149C1F80880B47051
:10165000012251034948FEF78EFEAC608AF8024031
:101660000DE0B87801280AD0002208214448FEF78E
:1016700082FE012251024148FEF77DFEAC603648F1
:10168000C07801282DD19BF80300012801D0D0B1EA
:1016900027E099F80300012823D09AF803000228D4
:1016A00008D1012210213648FEF765FE3849C1F8FD
:1016B0000C80F470012211033048FEF75CFEEC60F0
:1016C0008AF803400DE0F87801280AD000221021A2
:1016D0002B48FEF750FE012291022848FEF74BFEF0
:1016E000EC601D48007901282ED19BF804000128E8
:1016F00001D0D0B128E099F80400012824D09AF84C
:1017000004005746022808D1012220211C48FEF778
:1017100032FE1F49C1F810803471012211021848AD
:10172000FEF729FE2C613C710EE0387901280BD0C0
:10173000134E002220213046FEF71DFE01225102E9
:101740003046FEF718FE2C61FEF720FEBDE8F05F84
:10175000FFF7A7BA2800002005000020190000208C
:101760001400002048000020230000200A00002070
:101770005C0000200F0000201E0000200010004828
:10178000000C00480000002098000020A0BB0D00C5
:101790003400002030B58FB0022501200490009560
:1017A0001020059000244FF42010CDE90840079543
:1017B0006846FEF77FFF00B1FEE70F20CDE90A057E
:1017C0004FF48060CDE90C4001210AA80E94FEF789
:1017D00075FE00B1FEE7FEF735FF4FF47A71B0FBFE
:1017E000F1F0FFF74AFA0420FFF73AFA0022114617
:1017F000501EFEF731FE0FB030BD000014480168E6
:1018000041F4700101601348016841F00101016079
:101810004168114A114041600168104A114001605D
:10182000016821F480210160416821F4FE014160DA
:10183000C16A21F00F01C162016B094A11400163C5
:10184000002181600249C0038039086070470000B0
:1018500088ED00E0001002400CC07FF8FFFFF6FEAC
:10186000CCFC00FF2DE9F0430268214B214D224EB4
:10187000224C4FF08049984207D0484505D0A842F5
:1018800003D0B04201D0A04203D122F070074A68D1
:101890003A431B4FDFF86CC0DFF86C8098420DD0E4
:1018A00048450BD0A84209D0B04207D0A04205D08D
:1018B000B84203D0604501D0404503D122F44075C1
:1018C000CA682A4302608A68C2620A6882629842D1
:1018D00007D0A04205D0B84203D0604501D04045B2
:1018E00001D10969016301214161BDE8F083000074
:1018F000002C01400004004000080040003401407A
:1019000000400140004401400048014010B501235F
:10191000046A8B409C430462036A8A401343036257
:1019200010BD10B5846842EA032224F47F440A43C0
:101930002243826010BD826822F070020A4342F0A6
:1019400007018160704700002DE9F043026A22F030
:1019500001020262056A436882691C4C25F0020597
:1019600022400C6822F0030214438A68194E2A436D
:10197000174D194FDFF864C0DFF86490A84207D014
:10198000B04205D0B84203D0604501D0484506D1E9
:1019900022F00808CA6842EA080222F00402A842BB
:1019A00007D0B04205D0B84203D0604501D04845C9
:1019B00005D14D6923F440731D438B692B4343606C
:1019C0008461496841630262BDE8F0838FFFFEFFD6
:1019D000002C01400034014000400140004401401F
:1019E00000480140F0B5026A22F010020262056A66
:1019F00042688369194C1B4E23400C6823F44073E2
:101A000043EA042425F020038D6843EA0513144DAE
:101A1000A84201D0B04206D1CF6823F0800343EA48
:101A2000071323F04003A8420AD0B04208D00E4D5D
:101A3000A84205D00D4DA84202D00D4DA84207D1B5
:101A40004D6922F4406242EA85028D6942EA8502CC
:101A500042608461496881630362F0BDFF8FFFFECD
:101A6000002C01400034014000400140004401408E
:101A700000480140F0B5026A22F480720262056AF1
:101A80004368C269194C1B4E22400C6822F00302C5
:101A9000144325F400728D6842EA0522144DA842D1
:101AA00001D0B04206D1CF6822F4006242EA072298
:101AB00022F48062A8420AD0B04208D00E4DA8425B
:101AC00005D00E4DA84202D00D4DA84207D14D6958
:101AD00023F4405343EA05138D6943EA0513436039
:101AE000C4614968C1630262F0BD00008FFFFEFF60
:101AF000002C0140003401400040014000440140FE
:101B00000048014030B5026A22F480520262046A41
:101B10004268C369124D24F400542B400D6823F42D
:101B2000407343EA05238D6844EA05340D4DA8420D
:101B30000BD00D4DA84208D00C4DA84205D00C4D3D
:101B4000A84202D00B4DA84204D14D6922F4804234
:101B500042EA85124260C36149680164046230BD93
:101B6000FF8FFFFE002C0140003401400040014087
:101B7000004401400048014030B5026A22F480323E
:101B80000262046A4268436D114D2B400D681D438B
:101B900024F400330C8943EA04430E4CA0420BD0DA
:101BA0000D4CA04208D00D4CA04205D00C4CA042D8
:101BB00002D00C4CA04204D14C6922F4803242EA9B
:101BC00004224260456549688165036230BD0000BA
:101BD0008FFFFEFF002C0140003401400040014017
:101BE000004401400048014030B5026A22F48012EE
:101BF0000262046A4268436D114D24F400142B40C4
:101C00000D6843EA05230D8944EA05540D4DA842A9
:101C10000BD00D4DA84208D00C4DA84205D00C4D5C
:101C2000A84202D00B4DA84204D14D6922F4802273
:101C300042EA8522426043654968C165046230BD5D
:101C4000FF8FFFFE002C01400034014000400140A6
:101C5000004401400048014010B5036A046A24F0C2
:101C600001040462846924F0F00444EA021423F0BD
:101C70000A020A438461026210BD10B5036A23F0B0
:101C8000100303628369046A23F4704343EA023257
:101C900024F0A00343EA01118261016210BD00003B
:101CA0002DE9F05FDFF8B4814FF400494946404622
:101CB000FEF75CFB6A4E01276A4C002538B12068AC
:101CC000401C2060642808D32560377005E0494631
:101CD0004046FEF74BFB00B935704FF4807A514611
:101CE0004046FEF743FB38B16068401C60606428E2
:101CF00008D36560777005E051464046FEF736FB35
:101D000000B975704FF4007949464046FEF72EFB46
:101D100038B1A068401CA060642808D3A560B770E3
:101D200005E049464046FEF721FB00B9B5704FF487
:101D3000806B59464046FEF719FB38B1E068401CFD
:101D4000E060642808D3E560F77005E05946404636
:101D5000FEF70CFB00B9F570CB464946DFF8089159
:101D60004846FEF703FB38B12069401C2061642817
:101D700008D32561377105E059464846FEF7F6FA63
:101D800000B935714FF4006B59464046FEF7EEFA44
:101D9000364E38B12068401C2060642808D3256086
:101DA000377005E059464046FEF7E0FA00B9357055
:101DB0004FF4804B59464046FEF7D8FA38B1606878
:101DC000401C6060642808D36560777005E0594660
:101DD0004046FEF7CBFA00B975704FF4005B5946E8
:101DE0004046FEF7C3FA38B1A068401CA0606428E2
:101DF00008D3A560B77005E059464046FEF7B6FA2D
:101E000000B9B5704FF4805B59464046FEF7AEFA14
:101E100038B1E068401CE060642808D3E560F770E2
:101E200005E059464046FEF7A1FA00B9F570514663
:101E30004846FEF79BFA40B12069401C20616428A7
:101E400001D325613771BDE8F09F51464846FEF742
:101E50008DFA0028F7D13571F5E700000010004831
:101E60001400002084000020000C0048190000200D
:101E70002DE9F05F4FF4806B4FF09049594648468A
:101E8000FEF774FA694E0127694C002538B12068C5
:101E9000401C2060642808D32560377005E059464F
:101EA0004846FEF763FA00B935704FF48078414632
:101EB0004846FEF75BFA38B16068401C60606428F1
:101EC00008D36560777005E041464846FEF74EFA54
:101ED00000B97570DFF85C814FF4004A5146404606
:101EE000FEF744FA38B1A068401CA060642808D30B
:101EF000A560B77005E051464046FEF737FA00B9D5
:101F0000B5704FF4005A51464046FEF72FFA38B1EB
:101F1000E068401CE060642808D3E560F77005E0E5
:101F200051464046FEF722FA00B9F5704FF4006AB8
:101F300051464046FEF71AFA38B12069401C20612C
:101F4000642808D32561377105E051464046FEF705
:101F50000DFA00B935714FF4007A51464846FEF744
:101F600005FA354E38B12068401C2060642808D33B
:101F70002560377005E051464846FEF7F7F900B98D
:101F80003570DFF8B89051464846FEF7EFF938B1A2
:101F90006068401C6060642808D36560777005E065
:101FA00051464846FEF7E2F900B975704FF4804992
:101FB00049464046FEF7DAF938B1A068401CA060F7
:101FC000642808D3A560B77005E049464046FEF78F
:101FD000CDF900B9B5704FF4805949464046FEF737
:101FE000C5F938B1E068401CE060642808D3E560BA
:101FF000F77005E049464046FEF7B8F900B9F570BC
:1020000059464046FEF7B2F940B12069401C2061B4
:10201000642801D325613771BDE8F09F59464046D9
:10202000FEF7A4F90028F7D13571F5E70A00002082
:1020300070000020000C00480F000020000800483D
:1020400002E008C8121F08C1002AFAD17047704781
:10205000002001E001C1121F002AFBD170470000DF
:10206000FEF79CF9FFF796FBFFF71CF8FFF728F93E
:10207000FFF7ECF800211148FEF7E8FF04210F48B4
:10208000FEF7E4FF08210D48FEF7E0FF0C210B48A6
:10209000FEF7DCFF094800213C38FEF7D7FF07496F
:1020A000C9200A6850630A6890630968C8630864B5
:1020B00002493C3909684863FEE70000E800002057
:1020C00002030405060708090A0B0C0D0E0F101079
:1020D0000102030405060708090A0B0C0D0E0F1078
:1020E00000000000000000000102030406070809C8
:1020F00010210008000000203400000040200008EB
:102100004421000834000020F4040000502000089E
:1021100001010101010101010101000000000000B5
:1021200000000000000000000000000000000000AF
:10213000000000000000000000000000000000009F
:0421400000127A000F
:040000050800018965
:00000001FF
