:020000040800F2
:10000000780400209D010008A5010008A701000850
:10001000A9010008AB010008AD01000800000000C4
:10002000000000000000000000000000AF01000818
:10003000B101000800000000B3010008E911000848
:10004000B7010008B7010008B7010008B7010008B0
:10005000B7010008B7010008B7010008B7010008A0
:10006000B7010008B7010008B7010008B701000890
:10007000B7010008B7010008B7010008B701000880
:10008000B7010008B7010008B7010008B701000870
:10009000B7010008B7010008B7010008B701000860
:1000A000B7010008B7010008B7010008B701000850
:1000B000B7010008B7010008B7010008B701000840
:1000C000B7010008B7010008B7010008B701000830
:1000D000B7010008B7010008B7010008B701000820
:1000E000B7010008B7010008B7010008B701000810
:1000F000B7010008B7010008B7010008B701000800
:10010000000000000000000000000000B70100082F
:10011000B7010008B7010008B7010008B7010008DF
:10012000B7010008B7010008B7010008B7010008CF
:10013000B7010008B701000800000000000000003F
:10014000B7010008B7010008B7010008000000006F
:10015000000000000000000000000000000000009F
:100160000000000000000000B7010008B70100080F
:10017000B7010008000000000000000000000000BF
:1001800000000000B7010008DFF80CD000F020F8F4
:1001900000480047511600087804002006488047B0
:1001A00006480047FEE7FEE7FEE7FEE7FEE7FEE75C
:1001B000FEE7FEE7FEE7FEE76D1200088901000892
:1001C000421C10F8011B0029FBD1801A7047000067
:1001D000064C074D06E0E06840F0010394E8070094
:1001E00098471034AC42F6D3FFF7D2FFC816000888
:1001F000E81600082DE9F84FDFF864B100234FF04E
:10020000010C4FF0030A4FF00F090BF1040EA0E0B0
:100210000CFA03F6324072D04C68022C01D0122C3A
:100220000ED1DC0800EB8408D8F820405D07EF0E03
:1002300009FA07F5AC430D69BD402543C8F82050C5
:1002400007685D0091F804800AFA05F408F00308D5
:10025000A74308FA05F848EA0708C0F800804F6885
:10026000012F05D0022F03D0112F01D0122F11D151
:100270008768D1F80C80A74308FA05F848EA070810
:10028000C0F808804768B7430E79C6F300169E4051
:100290003E434660C668A6438C68AC403443C460A5
:1002A0004C68E40054D52F4CA56945F00105A561C3
:1002B000A46923F0030504F0010400942A4C2E19CC
:1002C000B4689D072F0F09FA07F5AC43B0F1904FC2
:1002D00004D0264DA84203D1012512E0002510E0EC
:1002E000234DA84201D102250BE0224DA84201D1A5
:1002F000032506E0204DA84202D1042501E027E0B5
:100300000525BD402543B560DBF800405D464E68DD
:100310009443F60300D514432C60DEF80040754684
:100320004E689443B60300D514432C600C4D083539
:100330002C684E689443F60200D514432C60084D97
:100340000C352C684E689443B60200D514432C60DB
:100350005B1C0A6832FA03F47FF45AAFBDE8F88FE9
:100360000004014000100240000001400004004869
:1003700000080048000C0048001000480AB18161E4
:1003800070478162704700000148006870470000B4
:100390000000002002480168491C0160704700000D
:1003A00000000020074810B5016841F0100101600D
:1003B000032000F075F8002000F006F800F018F8AF
:1003C000002010BD0020024010B5044607484FF43D
:1003D0007A710068B0FBF1F000F08FFD0022214639
:1003E000501E00F03DF8002010BD00000400002069
:1003F0001A4808B5816941F001018161806900F006
:1004000001000090072000F04BF8002211466FF029
:100410000B0000F025F8002211466FF00A0000F0F2
:100420001FF8002211466FF0090000F019F80022B1
:100430001146501F00F014F800221146101F00F062
:100440000FF800221146901E00F00AF80022BDE8C5
:1004500008401146501E00F003B800000010024092
:10046000F0B40E4B1B680C46C3F30223C3F107051F
:10047000042D00D90425191D072901D2002300E00D
:10048000DB1E012606FA05F1491E214099409E40D7
:10049000761E16403143F0BC00F096BE0CED00E035
:1004A000064900F0070208684FF6FF03184040EACB
:1004B0000220034A10430860704700000CED00E082
:1004C0000000FA052DE9F84F04460068804DC0038E
:1004D0006FD5E8690026C00008D4E86940F0805074
:1004E000E861E869012600F08050009079480168D1
:1004F000C90512D40168804641F480710160FFF79C
:1005000043FF074605E000BFFFF73EFFC01B64281E
:1005100035D8D8F80000C005F6D5286A10F4407028
:1005200053D0A18801F4407181424ED0286A4FF423
:10053000803191FAA1F2B2FA82F29700664A4FF046
:100540000108174420F44070C7F8008491FAA1F123
:10055000B1FA81F102EB81010023C1F80034286275
:10056000C00732D0FFF710FF074641F2883A4FF03C
:10057000020907E0FFF708FFC11B514502D903201C
:10058000BDE8F88F99FAA9F1B1FA81F141F0400183
:100590004846B8EB511F01D129680CE090FAA0F150
:1005A000B1FA81F141F04001B0EB511F02D1296A4B
:1005B00001E015E0696A99FAA9F0B0FA80F000F05C
:1005C0001F0008FA00F21142D4D0286A616820F4B2
:1005D0004070084328621EB1E86920F08050E8614D
:1005E0002078C00705D0286BA16820F003000843DD
:1005F00028632078800705D5286BE16820F4403017
:10060000084328632078400705D5286B216920F42A
:100610004020084328632078800605D5286BE169CF
:1006200020F01000084328632068800305D568681F
:10063000A16B20F48000084368602078400605D54F
:10064000286B216A20F020000843286320780007E7
:1006500005D5286B616920F4401008432863207891
:10066000C00605D5286BA16920F440000843286323
:100670002088800505D56868E16A20F400000843F9
:1006800068602078000605D5E86A616A20F4F87091
:100690000843E8622088C00505D5E86AA16A20F40D
:1006A00078500843E8622088C00405D5286B216B88
:1006B00020F48070084328632088800405D5286BC7
:1006C000616B20F4007008432863002058E70000A5
:1006D0000010024000700040000042422DE9F04747
:1006E000DFF8708105460E46D8F8000000F00700DC
:1006F000B0420CD2D8F8001021F007013143C8F8FD
:100700000010D8F8000000F00700B04277D1287838
:10071000514C800705D56068A96820F0F0000843B7
:1007200060602878C00759D06968012001290DD080
:10073000022929D05FF0020393FAA3F2B2FA82F2FF
:1007400042F02002520904D0226803E04FF4003343
:10075000F2E7626A93FAA3F3B3FA83F303F01F0399
:10076000984002424BD0606820F00300084360606C
:10077000FFF70AFE6968074641F2883001290DD06B
:100780000229814617D025E04FF00073D4E700BF5F
:10079000FFF7FAFDC11B494501D918E081466068A1
:1007A000C0F381000128F3D118E000BFFFF7ECFD92
:1007B000C11B49450BD86068C0F381000228F5D100
:1007C0000CE000BFFFF7E0FDC11B494502D9032043
:1007D000BDE8F087606810F00C0FF3D1D8F8001076
:1007E000404601F00701B1420BD9016821F0070131
:1007F00031430160006800F00700B04201D00120E1
:10080000E6E72878400705D56068E96820F4E060ED
:10081000084360602878000706D56068296920F4DD
:10082000605040EAC100606000F052F86168F02258
:1008300092FAA2F201F0F001B2FA82F2D140074A34
:10084000515CC840064908600020FFF7BDFD00204C
:10085000BEE700000020024000100240B016000871
:1008600004000020014800687047000004000020D8
:1008700008480949006849684FF4E06292FAA2F218
:1008800001F4E061B2FA82F2D140044A515CC840FE
:10089000704700000400002000100240C01600084D
:1008A00008480949006849684FF4605292FAA2F278
:1008B00001F46051B2FA82F2D140044A515CC8405E
:1008C000704700000400002000100240C01600081D
:1008D000144B10B55A68144802F00C0104291DD0BD
:1008E00008291BD14FF4701494FAA4F402F4701187
:1008F000B4FA84F4E1400D4CDB6A615C0F2494FA95
:10090000A4F403F00F03B4FA84F4E340074C10346A
:10091000D203E35C03D5B0FBF3F0484310BD0448B9
:10092000484310BD0010024000127A0090160008E3
:1009300000093D002DE9F84F05460078F74EC00745
:100940004FF0010425D070686704C0F381000128CE
:1009500007D07068C0F3810002281BD17068C00303
:1009600018D597FAA7F0B0FA80F040F020004009BF
:1009700001D0306800E0706A97FAA7F1B1FA81F10E
:1009800001F01F0104FA01F1084264D068680028F0
:100990007DD060E06868B0F5803F0BD010B1B0F555
:1009A000A02F17D0306820F480303060306820F4F9
:1009B000802002E0306840F480303060F06AA9683E
:1009C00020F00F000843F062686828B3FFF7DCFCF2
:1009D00080460BE0306840F480203060EAE700BFDA
:1009E000FFF7D2FCA0EB0800642871D897FAA7F0B3
:1009F000B0FA80F040F02000400901D0306800E0FB
:100A0000706A97FAA7F1B1FA81F101F01F0104FAB7
:100A100001F10842E4D01EE0FFF7B6FC804605E095
:100A2000FFF7B2FCA0EB08006428DED897FAA7F025
:100A3000B0FA80F040F02000400901D0306800E0BA
:100A4000706A97FAA7F1B1FA81F101F01F0104FA77
:100A500001F10842E4D12878DFF8C48280074FF022
:100A6000000A4FF0020732D570684FF0F80B10F013
:100A70000C0F07D07068C0F38100022829D170687C
:100A8000C00326D497FAA7F0B0FA80F000E08BE01C
:100A900040F02000400901D0306800E0706A97FA09
:100AA000A7F1B1FA81F101F01F0104FA01F1084246
:100AB00002D02869012877D130689BFAABF26969C6
:100AC000B2FA82F220F0F8009140084330605AE018
:100AD00064E1286988B394FAA4F0B0FA80F048F889
:100AE0002040FFF751FC814606E000BFFFF74CFCB9
:100AF000A0EB0900022898D897FAA7F0B0FA80F086
:100B000040F02000400901D0306800E0706A97FA98
:100B1000A7F1B1FA81F101F01F0104FA01F10842D5
:100B2000E4D030689BFAABF220F0F8016869B2FAC1
:100B300082F290400143316025E0FFE794FAA4F18E
:100B4000B1FA81F148F821A0FFF71EFC814605E0CB
:100B5000FFF71AFCA0EB09000228CCD897FAA7F0FF
:100B6000B0FA80F040F02000400901D0306800E089
:100B7000706A97FAA7F1B1FA81F101F01F0104FA46
:100B800001F10842E4D1287800076CD5A869A8B320
:100B900094FAA4F0B0FA80F008EB8000C0F880442A
:100BA000FFF7F2FB814607E08AE100BFFFF7ECFBAD
:100BB000A0EB090002289ED897FAA7F0B0FA80F0BF
:100BC00040F06000B4EB501F01D130680BE097FAA1
:100BD000A7F0B0FA80F040F06000B7EB501F01D1F1
:100BE000306A00E0706A97FAA7F1B1FA81F101F07A
:100BF0001F0104FA01F21042D8D034E0FFE794FA62
:100C0000A4F1B1FA81F108EB8101C1F880A4FFF7EA
:100C1000BBFB814606E000BFFFF7B6FBA0EB090077
:100C200002289AD897FAA7F0B0FA80F040F0600056
:100C3000B4EB501F01D130680BE097FAA7F0B0FA7F
:100C400080F040F06000B7EB501F01D1306A00E047
:100C5000706A97FAA7F1B1FA81F101F01F0104FA65
:100C600001F21042D8D12878400774D5F0694FF0CE
:100C70000009C00009D4F06940F08050F061F069CB
:100C80004FF0010900F08050009026480168C90526
:100C900012D4016841F480710160FFF775FB83464F
:100CA00006E000BFFFF770FBA0EB0B00642875D8CF
:100CB0001C480068C005F5D5E86801280AD008B1CD
:100CC000052811D0306A20F001003062306A20F02F
:100CD000040002E0306A40F001003062E868E0B1F0
:100CE000FFF752FB83460DE0306A40F004003062AB
:100CF000F0E700BFFFF748FBA0EB0B0141F28830A3
:100D000081424BD897FAA7F0B0FA80F040F040004B
:100D1000B4EB501F08D1306812E01DE00010024013
:100D2000000042420070004097FAA7F0B0FA80F04D
:100D300040F04000B7EB501F01D1306A00E0706A0C
:100D400097FAA7F1B1FA81F101F01F0104FA01F25B
:100D50001042CFD02EE034E0FFF716FB834607E0C9
:100D6000FFF712FBA0EB0B0141F28830814215D84E
:100D700097FAA7F0B0FA80F040F04000B4EB501FB3
:100D800001D130680CE097FAA7F0B0FA80F040F09B
:100D90004000B7EB501F02D1306A01E083E0706A77
:100DA00097FAA7F1B1FA81F101F01F0104FA01F2FB
:100DB0001042D5D1B9F1000F03D0F06920F0805076
:100DC000F061E86980B37168C1F38101022977D0CD
:100DD0004FF080714F00022809D091FAA1F0B0FACB
:100DE00080F048F820A0FFF7CFFA05465EE089467C
:100DF00091FAA1F15046B1FA81F1C24648F82100BA
:100E0000FFF7C2FA804605E0FFF7BEFAA0EB080044
:100E1000022848D897FAA7F0B0FA80F040F02000F6
:100E2000400902D0306801E056E0706A97FAA7F1F5
:100E3000B1FA81F101F01F0104FA01F10842E3D196
:100E4000D5E908100843716821F4741108437060F3
:100E500099FAA9F0B0FA80F04AF82040FFF794FA26
:100E6000054604E0FFF790FA401B02281BD897FACA
:100E7000A7F0B0FA80F040F02000400901D03068BF
:100E800000E0706A97FAA7F1B1FA81F101F01F0151
:100E900004FA01F10842E5D01EE000BFFFF774FA42
:100EA000401B022802D90320BDE8F88F97FAA7F06B
:100EB000B0FA80F040F02000400902D0306801E034
:100EC0000CE0706A97FAA7F1B1FA81F101F01F0105
:100ED00004FA01F10842E1D10020E5E70120E3E74F
:100EE0004FF0E0210428086903D020F004000861D5
:100EF000704740F00400FAE7704710B5401EB0F1AB
:100F0000807F01D3012010BD4FF0E02460610F21EC
:100F1000601700F059F90020A0610720206100202F
:100F200010BD10B5FFF7E8FF10BD10B5040003D0E9
:100F300094F8690010B107E0012010BD002084F88A
:100F40006800204600F026F8242084F86900206814
:100F5000016821F001010160204600F04DFA0128EE
:100F6000EBD0606A10B1204600F0B4F92068416807
:100F700021F4904141602068816821F02A0181605C
:100F80002068016841F0010101602046BDE8104081
:100F900000F004BA00B500680E4987B0884217D146
:100FA0000D48C16941F40031C161C069694600F46E
:100FB000003005900C20009002200190012002904A
:100FC00003200390072004904FF09040FFF712F9A0
:100FD00007B000BD00440040001002402DE9F84376
:100FE000044690F869001F4616460D4620284DD14C
:100FF000CDB1C6B194F86800012847D0012084F82B
:1010000068004FF00008C4F86C80212084F8690063
:101010005034FFF7B9F924F8026B814624F852697D
:101020004FF4805618E00120BDE8F883B4F8520070
:10103000401EA4F852004B46002280212046009713
:1010400000F0C4FAA0B9A068B04201D1206988B10B
:1010500015F8010B21680885B4F852000028E5D185
:101060004B46002240212046009700F0AFFA30B1F5
:101070000320D9E735F8020BC0F30800EAE7202087
:1010800084F8690084F868800020CDE70220CBE76F
:10109000F0B53A4887B0416941F4001141614169B6
:1010A00001F400110591416941F400214161416958
:1010B00001F400210591416941F4800141614169D8
:1010C00001F480010591416941F4003141614169B8
:1010D00001F400310591416941F480214161406989
:1010E000274E00F480204FF608750590002229460F
:1010F0003046FFF743F93720009022480024CDE91D
:10110000010469463046FFF775F800950125CDE9E1
:101110000154694630460394FFF76CF8CDE900545A
:101120004FF09047694638460294FFF763F8E02095
:1011300000900226CDE901640520CDE9034069460F
:101140003846FFF757F84FF4C050CDE900060320AA
:10115000CDE902400E20049069463846FFF74AF870
:10116000C02000901220CDE901050420CDE9034004
:1011700069460548FFF73EF807B0F0BD0010024091
:101180000010004800001210000400480D4810B57F
:101190000B4901604FF4E131416000214FF480625E
:1011A0008160C0E903120C22C0E90521C16101621E
:1011B0004162FFF7BAFE002800D0FEE710BD000034
:1011C00000440040080000200907090E002806DA44
:1011D00000F00F0000F1E02080F8141D704700F1CE
:1011E000E02080F80014704710B5FFF7D3F8BDE891
:1011F0001040FFF796BE30B59FB002250120049045
:1012000000951020059000244FF42010CDE90840EF
:1012100007956846FFF78EFB00B1FEE70F20CDE98A
:1012200019054FF48060CDE91B40012119A81D94D8
:10123000FFF754FA00B1FEE70AA80A950D94FFF7EC
:1012400041F900B1FEE7FFF70DFB4FF47A71B0FBF7
:10125000F1F0FFF752FE0420FFF742FE0022114694
:10126000501EFFF7FDF81FB030BD000014480168A4
:1012700041F4700101601348016841F0010101600F
:101280004168114A114041600168104A11400160F3
:10129000016821F480210160416821F4FE01416070
:1012A000C16A21F00F01C162016B094A114001635B
:1012B000002181600249C003803908607047000046
:1012C00088ED00E0001002400CC07FF8FFFFF6FE42
:1012D000CCFC00FF90F82410C90706D001684A68CA
:1012E000836A22F400321A434A6090F82410890776
:1012F00006D501684A68C36A22F480321A434A60FC
:1013000090F82410490706D501684A68036B22F457
:1013100080221A434A6090F82410090706D5016814
:101320004A68436B22F400421A434A6090F8241042
:10133000C90606D501688A68836B22F480521A4375
:101340008A6090F82410890606D501688A68C36B04
:1013500022F400521A438A6090F82410490611D5ED
:1013600001684A68036C22F480121A434A60016CD7
:10137000B1F5801F06D101684A68436C22F4C002AF
:101380001A434A6090F82410090606D501684A6895
:10139000806C22F4002202434A607047F8B50026B0
:1013A0000446C666FEF7F0FF0546206800686FF049
:1013B0007E47000708D52B4600224FF40011204637
:1013C000009700F003F960B92068006840070AD56B
:1013D0002B4600224FF480012046009700F0F6F8DB
:1013E00008B10320F8BD202084F8690084F86A0061
:1013F00084F868600020F8BD2DE9F0410446102013
:101400002369A268E6691A436369002133431A43DA
:1014100023680D461E6849F20C67BE4316431E60E2
:1014200022685368E66823F4405333435360236AC9
:10143000A2691A4323689E6826F4306616439E60AC
:101440005A4F22685A4B0603BA420CD11B6B13F059
:10145000030306D0012B4DD0022B4DD0032B4CD1D2
:1014600046E0012049E0534FBA420CD11B6B13F404
:1014700040333BD0B3423DD0B3F5003F3CD0B3F551
:10148000403F3AD134E04C4FBA420DD11B6B13F4BC
:1014900040232BD0B3F5802F2CD0B3F5002F2BD0C9
:1014A000B3F5402F29D123E0444FBA420DD11B6B35
:1014B00013F440131AD0B3F5801F1BD0B3F5001FEF
:1014C0001AD0B3F5401F18D112E03D4FBA4214D1E3
:1014D0001B6B13F4400309D0B3F5800F0AD0B3F5AA
:1014E000000F09D0B3F5400F07D101E0002004E060
:1014F000022002E0042000E00820E7694FF40043E6
:101500009F4226D109281DD2DFE800F00508121CF1
:10151000151C1C1C1800FFF7ABF901E0FFF7C0F920
:101520004100606801EB5001B1FBF0F081B20AE0CC
:1015300024496068F6E7FFF7CBF9F1E7606806EB4E
:101540005001F1E7012521F00F00C1F342010843EA
:101550001CE0092825D2DFE800F005080B24102440
:1015600024241C00FFF784F909E0FFF799F906E04D
:101570001549606801EB50010EE0FFF7A9F901463B
:10158000606801EB5001B1FBF0F080B22168C860E7
:1015900008E0606803EB5001B1FBF0F080B2D0606E
:1015A00000E001252846BDE8F08100000038014038
:1015B000001002400044004000480040004C004041
:1015C000005000400024F40000127A002DE9F041A0
:1015D000984617460E460446069D1DE0681C1BD023
:1015E0002DB1FEF7D1FEA0EB0800A84214D9206867
:1015F000016821F4D07101602068816821F0010147
:101600008160202084F8690084F86A00002084F852
:1016100068000320BDE8F0812068C06936EA000058
:1016200004D00020B842D9D00020F3E70120F9E728
:1016300002E008C8121F08C1002AFAD1704770479B
:10164000002001E001C1121F002AFBD170470000F9
:10165000FEF7A8FEFFF7CFFDFFF71AFDFFF796FD97
:1016600005A42046FEF7ACFD82B24FF6FF7321467B
:101670000648FFF7B3FCFEE748656C6C6F20576FB8
:10168000726C642121210A0D000000000800002076
:1016900002030405060708090A0B0C0D0E0F1010B3
:1016A0000102030405060708090A0B0C0D0E0F10B2
:1016B0000000000000000000010203040607080902
:1016C0000000000001020304E816000800000020EA
:1016D0000800000030160008F0160008080000207E
:1016E00070040000401600080000000000127A009C
:040000050800018965
:00000001FF
